:020000041000EA
:1000000000B5324B212058609868022188439860DF
:10001000D860186158612E4B002199600221596106
:100020000121F02299502B49196001219960352056
:1000300000F044F80222904214D00621196600F024
:1000400034F8196E01211966002018661A6600F04E
:100050002CF8196E196E196E052000F02FF8012189
:100060000842F9D1002199601B49196000215960AB
:100070001A491B48016001219960EB211966A021F2
:10008000196600F012F800219960164914480160C1
:100090000121996001BC002800D000471248134993
:1000A000086003C880F30888084703B5996A0420EC
:1000B0000142FBD001200142F8D103BD02B5186610
:1000C0001866FFF7F2FF186E186E02BD00000240BE
:1000D000000000180000070000035F00212200005C
:1000E000F4000018222000A00001001008ED00E03C
:1000F00000000000000000000000000074B24E7A12
:1001000000200420F7010010C3010010C5010010F9
:10011000C1010010C1010010C1010010C101001097
:10012000C1010010C1010010C1010010C701001081
:10013000C1010010C1010010C9010010CB01001065
:10014000CD010010CD010010CD010010CD01001037
:10015000CD010010CD010010CD010010CD01001027
:10016000CD010010CD010010CD010010CD01001017
:10017000CD010010CD010010CD010010CD01001007
:10018000CD010010CD010010CD010010CD010010F7
:10019000CD010010CD010010CD010010CD010010E7
:1001A000CD010010CD010010CD010010CD010010D7
:1001B000CD010010CD010010CD010010CD010010C7
:1001C00000BE00BE00BE00BE00BE00BE00F04BF888
:1001D000103800BEF2EB8871045000102C50001053
:1001E0003402001090A31AE700202149086006C8D5
:1001F00081F3088810471F48006800282FD10DA4FC
:100200000ECC002902D000F012F8F9E71A491B4A77
:10021000002000E001C19142FCD1194988471949E9
:1002200088471949884700BEFDE701C901C29A42C3
:10023000FBD370472C500010C00000204802002063
:10024000B45100100000042000000420B45100103C
:1002500000100420001004200000000070470B482C
:1002600003F098F80047EFF30580C0B27047000034
:1002700008ED00E0000000D0480200202C0600201D
:10028000D51500100D030010C516001057560000BC
:1002900006005250ABB36053784F00100600525026
:1002A000861C0302884F0010060052505422A29D63
:1002B000904F001005005250DE65F468B4510010F4
:1002C000F8B5C04610B5064C2378002B07D1054B76
:1002D000002B02D0044800E000BF0123237010BDB2
:1002E0004805002000000000C8490010044B10B56C
:1002F000002B03D00349044800E000BF10BDC046F6
:10030000000000004C050020C8490010F0B5CE46A2
:10031000474680B57B4CA54404F048F900F0E2F96B
:10032000794804F08FF88021784C89005022200011
:1003300000F00CF923787649DB0700D4754976483C
:1003400004F028F9754804F07DF8754B00269946AD
:10035000744B8227984665AD82220021280003F065
:1003600003FF8422290068462E70EE5303F002FF3B
:1003700020686168A268E36800F022F9002800D0D4
:10038000ABE0320031004046013604F003F90A2E9A
:10039000E2D1654804F056F8644B00269946644B58
:1003A0008227984682220021280003F0DDFEEE53CA
:1003B000009520686168A268E36800F05BF9002896
:1003C00000D082E040462A78E95B013604F0E2F88A
:1003D0000A2EE7D1574804F035F823AE564804F00A
:1003E00031F882220021300003F0BEFE8227042370
:1003F0008422310068463370F35303F0BBFE20685B
:100400006168A268E36800F0DBF8002800D074E0BF
:100410003278F15B434804F0BDF8484804F012F824
:10042000009620686168A268E36800F049F9002836
:100430005FD13178424804F0ADF8424804F002F848
:100440008223002244A9CA520023CA1853700133E0
:10045000802BFAD18422684603F08CFE2068616804
:10046000A268E36800F0D0F800283ED1364803F0D7
:10047000E9FF2E4B002699462D4B82279846822273
:100480000021280003F070FEEE530095206861689B
:10049000A268E36800F0EEF800280FD140462A7801
:1004A000E95B013604F076F8802EE8D1002087233E
:1004B0009B009D44C0BCB946B046F0BD48460136DD
:1004C00003F0C0FF802EDAD1F0E74846013603F092
:1004D000B9FF0A2E00D065E77CE74846013603F0F5
:1004E000B1FF0A2E00D037E753E70D4803F0AAFF0B
:1004F000BFE70E4803F0A6FF9FE7094803F0A2FFFD
:100500008BE7C046E4FDFFFFD8490010E00500205E
:10051000CC490010C8490010F4490010084A0010E6
:10052000804A0010604A0010944A00101C4B0010D2
:10053000FC4A0010304B0010544B0010B04B001020
:10054000EC4B00100C4C0010484C001010B504008F
:100550001000A2720122CB01013B6360237882B0BC
:10056000934323708023A1815B00994219D0DB184B
:1005700099421BD0802914D000F01AF9002803D129
:1005800001222378134323702378DB070CD4094915
:100590006068A37A0090A289074803F0FBFF02B0CD
:1005A00010BD40232381E7E70449F1E7802323813D
:1005B000E2E7C046744C0010804C00106C4C0010F8
:1005C000822310B588B0039104920AAAD35A1278F4
:1005D00007A91C0A0C704B708A70C20711D5039AC8
:1005E000019293420BD802AB0322987A00F0CCF828
:1005F0000400052000F0F2F8200008B010BD02242D
:10060000FAE70124F8E7C0468223F0B5A7B00292CA
:10061000009094B22CAAD65A6A46330A0D000F00F5
:1006200013755675002C06D0B1211620220069449E
:10063000684403F09FFD6B461B78DB0716D5BE426E
:1006400012D8AD1BA54213D3730611D16B460234E9
:10065000A2B2987A05A900F097F80400052000F0EE
:10066000BDF8200027B0F0BD0224FAE70124F8E726
:100670000324F6E7822310B58AB006920C9A0591FE
:10068000D35A02A91A0A0A7701224B77024215D0DF
:10069000059903918B420FD802AB9C461B246444FE
:1006A000987C09A923000092013200F039F82378E0
:1006B0000C9A13700AB010BD0220FBE70120F9E785
:1006C00010B51F24012388B06C44100C0093002245
:1006D00023000021C0B200F023F823780A9A137097
:1006E00008B010BD10B50C490C4804F02BF80321DC
:1006F000042000F077F80321052000F073F80022B1
:100700000121042000F086F805200022012100F0DC
:1007100081F8002010BDC046801A06002402002087
:10072000F0B5C64600B582B0060008A81500984688
:100730000488144F002A0FD1002342460093310051
:100740002300380004F090F8201A431E98414042DC
:1007500002B080BCB846F0BD0123380000931300FE
:100760000A00310004F018F8A842E5D00023424600
:10077000009331002300380004F076F80120404255
:10078000E6E7C04624020020002310B582B0140022
:10079000009313000A000100044803F0FDFF201A33
:1007A000431E9841404202B010BDC04624020020C2
:1007B0000F22012300B585B06A44137000230100A5
:1007C00000930548013303F0E7FF023043425841EC
:1007D000404205B000BDC0462402002010B500F024
:1007E00091FB10BD094A830094464022634410B532
:1007F0001C68C0006240C024144080225201134390
:100800001C60034B9C466044416010BD04C0014025
:10081000004001400A4B80009C46042360440029AC
:1008200001D00C230821002A00D10B00026853409C
:100830000C221A4080235B01184302607047C046B7
:1008400004C0014070B5EFF3108C72B60D4D2B68EB
:10085000002BFCD0BFF35F8F0724CB08C618C05C09
:1008600001230C40A3401C000440034207D1034372
:100870003370BFF35F8F2C608CF3108870BD100055
:1008800000F022FF2C0100D0024B18688007C00F37
:100890007047C04600C006400021044B044ABFF325
:1008A0005F8F02C39342FAD17047C046000100D067
:1008B000800100D0044A1078431CDBB2172B00D90A
:1008C000102313707047C04678010020F8B504006B
:1008D00006200D0001F074F8002844D02A4B2B4963
:1008E000E21853425A418023DB039C469205284B71
:1008F00062441A60274B1A6010008B689843FBD142
:10090000214B8021E3185A425341234A5B0049009E
:100910009952062001F054F82900C00002F094FD1D
:10092000C30921D140270121260080256162A362ED
:1009300000232C36AD0135432B60062001F040F832
:100940003900800002F080FD6023E26A53406E228D
:100950001A4080235B0133431A60104B236310233A
:100960002B600D3BA364F8BD0D4A934203D90023CD
:100970000C4F0D49D8E77F221040013040089F01FD
:1009800019003F180300CFE70080FCBF00C0004003
:1009900000E0004000F000402006002001030000BD
:1009A000FEFF0000C0FF3F00FFFF000083680B4810
:1009B00010B5844661446244090112019A1859181D
:1009C00054684B6801209C4201D802D00020C0B27C
:1009D00010BD12680B689A42F9D8F7E7FFFFFF0FC6
:1009E0000A4B1968EFF3108072B60A68002AFCD02F
:1009F000BFF35F8F1B68BFF35F8F00221A6080F325
:100A0000108840BF002000217047C0460C0600201F
:100A1000F8B557464E464546DE46E0B599460CAB1E
:100A20001C780DAB1B78060090469A460768002C90
:100A300011D1BC7B002C42D065003B682D19033DD1
:100A400059194B78BB73002B00D1FB7300238B70BB
:100A50004B700B7004E065003B682D19033D59197C
:100A6000B2682A4B94464246E3181B0163441A605D
:100A70004A465A600A9A9A600B9ADA6000238B7091
:100A80004B700B707B7B9B46002B2BD02200594672
:100A9000B8687B6898473A68002816D05B46584685
:100AA0005B005B445519033BA870D118D35C002B45
:100AB00000D06B705B460C707B73A34513D0F0BC09
:100AC000BB46B246A946A046F8BD5B465B005B4408
:100AD000033BD3189C705119525D002A00D05A7004
:100AE0005B460B707C7342464B46307D00F0EEFA5D
:100AF000051E06D05346002B03D12100306800F0BC
:100B00002BFD0E9B002BDAD01D70D8E7FFFFFF0FE7
:100B1000F0B5DE464E46574645460023E0B58DB05B
:100B20000A936B4B8200D3580B90994600239B4647
:100B30004B46079300F06AFA079C06000F006268B4
:100B4000EFF3108572B61368002BFCD022000794D7
:100B5000BFF35F8F2468637B9946002B67D0926850
:100B60005C4B90464B441B01984443461A685B68B3
:100B700010001900801BB94100295FDD0B9800F0BF
:100B8000A5FA00230026984600279A46079C63682A
:100B9000BFF35F8F5A461A6085F310885346002BC7
:100BA00008D10028C6D10DB0F0BCBB46B246A9465C
:100BB000A046F0BD0A9B414618024B461843D04759
:100BC000089009916268EFF3108572B61368002BE4
:100BD000FCD00794BFF35F8F0899099A002A48DB7D
:100BE000114303D0079B1B69002B5DD1079B1B683A
:100BF000D97B002907D04A00521819688C4649460B
:100C00006244033A51704A46DA734B46079A013BF5
:100C1000D168CA5C0132CA545B46079A13615368B3
:100C2000BFF35F8F5A461A6085F3108882E700236E
:100C30000026984600279A460020A7E7002901D100
:100C400000289BD10021200000F008FC43461E68CC
:100C50005F689B68079A9A464346DB689846D36864
:100C60004B44013B1B780A931B0203431361002092
:100C70008CE72369002BB9D033003C005B1A944108
:100C80001A002300A74219D89F421BD0594604914D
:100C9000012103914946029141460191514607982D
:100CA0000091FFF7B5FEB7E700F0B0F9089A099B8D
:100CB00006000F0092197B419942E5D90122524268
:100CC000D317E3E79642E1D901225242D317DDE779
:100CD000F8050020FFFFFF0FF8B557464E46454682
:100CE000DE46E0B5404D81468A466A68EFF31088DB
:100CF00072B61368002BFCD0BFF35F8F2E68B47BF5
:100D0000002C39D0670033683F19033FDB195A784C
:100D1000B273002A00D1F273A968344A8C4649465E
:100D2000A21812016244116051465160304991602D
:100D30000021D160997059701970737B9B46002B0C
:100D400035D022001900B0687368984732680028CF
:100D500020D05B4658465B005B44D719033BB87014
:100D6000D118D35C002B00D07B705B460C70737382
:100D70005C451DD0002626E06B68BFF35F8F1C60CA
:100D800088F3108801204042F0BCBB46B246A94619
:100D9000A046F8BD5B465B005B44033BD3189C70E8
:100DA000D119D25D002A00D05A705B460B70747363
:100DB0004A465346287D00F089F9061EDAD0210004
:100DC000286800F0C9FBEB681B19013B19786B68B8
:100DD000BFF35F8F00221A6088F310880020002E76
:100DE000D2D108022043CFE77C010020FFFFFF0F94
:100DF000E109001010B5124C6368002B04D00A21E1
:100E0000104800F0F1F910BD23000F4A10212068AE
:100E100000F042FA032000F0EDF8032000F0C6F9DC
:100E200003200A4900F00CF9FFF744FD084B9C46EB
:100E3000032360442375074B80006060DC60DEE7BD
:100E40007C0100200C060020AD090010110B0010E1
:100E500040000034F8050020F0B504000D0006261F
:100E60007642F717C64636196F4100B58F4213D840
:100E700010D000F0CBF832003B00121A8B41002B4F
:100E800014DC002B37D02900200000F0C9F880BC0A
:100E9000B846F0BD8642ECD90026002700F0B6F82F
:100EA00032003B00121A8B41002BEADD3000390082
:100EB000FFF712FF0028E6DB00239846BC460F4AE6
:100EC0000F4F7B6A9C4504D8B96A8E42DBD99C459A
:100ED000D9D11168EFF3108072B60B68002BFCD0EB
:100EE000BFF35F8F1368BFF35F8F4146196080F3D4
:100EF000108820BFE5E7002AC5D0D7E70C06002000
:100F00000040054070B5060000F080F8FA220400A9
:100F10000D00002330000021920003F0BBF80019FF
:100F200069418D4205D802D0FFF796FF70BD84421B
:100F3000FAD901204042C117F6E7C046F0B5D646BF
:100F40004F464646C0B5EFF305833F2213401800D5
:100F50001038EFF3108C72B6204D2A68002AFCD0AE
:100F6000BFF35F8F0122110081401D4C88466163F1
:100F70001C4917000E788A463100C1400F400A42D2
:100F800009D1BFF35F8F2F608CF31088E0BCBA46A5
:100F9000B146A846F0BD14498200646A51588C429B
:100FA0000FD3124BD25843469E4353461E70BFF395
:100FB0005F8F00232B608CF31088002AE6D09047C7
:100FC000E4E70B4A9B00904643441A681A60BFF35B
:100FD0005F8F00232B608CF31088D7E7280100D0A7
:100FE000004005402A06002010060020640500206D
:100FF000D03F054010B50100024A0348FFF722FC2C
:1010000010BDC046D44C001028060020034B596A7E
:101010000A00986A596A8A42FAD17047004005402E
:10102000064A536A9942FCD807D1044B02E05A6A37
:10103000914202D19A6A8242F9D37047004005403A
:1010400070B504000D00EFF3108672B61A4A1368EB
:10105000002BFCD0BFF35F8F002D1BD0200000F0D1
:10106000C7FC164981420AD0200000F0C9FC0121CA
:10107000200000F0ABFC0123A340114A1360114B88
:10108000A400E550BFF35F8F00220B4B1A6086F37C
:10109000108870BD0B4BA200D5500122A2400A4916
:1010A00020000B7893430B70044900F0D3FC00211F
:1010B000200000F08BFCE5E7280100D03D0F001078
:1010C00038600540640500202A060020F0B54F4630
:1010D000D6464646C0B507002F4C616A0D00A66A89
:1010E000616AA942FAD18B4208D805D00120E0BC40
:1010F000BA46B146A846F0BDB242F7D9EFF3108A1E
:1011000072B6264801680029FCD0BFF35F8F012525
:10111000BD402349204C8846097889462943C9B2F5
:101120008C46414660460870391D1E48890065633B
:101130000A51B9000B50216A0020294219D0616A76
:101140000800A66A616A8142FAD18B4219D801D19E
:10115000B24216D8CC451DD00F4B1F201D625D63D7
:1011600001230740BB40104A1E38136043464A46DD
:101170001A70BFF35F8F0022084B1A608AF3108841
:10118000B5E70020BFF35F8F0022044B1A608AF39B
:101190001088ACE70120ECE700400540280100D0B2
:1011A0002A0600201006002080E200E0EFF3108CF9
:1011B00072B60A490B68002BFCD0BFF35F8F012386
:1011C0008340074A0748136202789A430270BFF3CC
:1011D0005F8F00230B608CF310887047280100D0CC
:1011E000004005402A060020024B9C4661448900CD
:1011F000016070474000003410B50400FFF75AFB4F
:1012000001002000FFF7F0FFFF232371BFF35F8F82
:1012100010BDC04610B50400FFF74CFB01002000D4
:10122000FFF7E2FFFF23A380BFF35F8F10BDC0462F
:1012300070B5050014001600002915D00C00002A16
:1012400012D080686B689847296800280ED0730018
:101250009B196200033B1219CB18033A9C70881843
:101260008A5C002A15D10670200070BD63001B192E
:101270007200033B9219CB18033A9E7088188A5C5F
:10128000002A02D104703400EEE75A700470340072
:10129000EAE75A700670E7E730B583600023CCB206
:1012A00043730133047342608373C4730D00006899
:1012B000012C06D9421C0133DBB2137003329C426D
:1012C000F9D1FF2129404B00591800234018033859
:1012D000437030BDF8B5CE46474606000C0080B5D9
:1012E000002907D04D0003686D18033D5A1957783F
:1012F000002F04D12000C0BCB946B046F8BD79002B
:10130000C9190339884643445978894600215970E0
:10131000517073683A00210080689847336800284C
:1013200014D042469A18947059195B5D002B00D076
:1013300053700F70270049463000FFF7CBFF39008C
:1013400002003000FFF774FF0400D3E74246414635
:101350005D19AF709A185B5C002B00D06B70147035
:10136000E9E7C046F0B557464546DE464E46E0B58D
:101370000D006B0001685B19DF1E0400C85D83B0BF
:101380000192CA1900284CD043001B18033BCB180C
:101390005E78B446002E16D1019E002E3ED0E67B2C
:1013A000002E04D073009B19CB18033B5D70E573CE
:1013B00000282FD10023537003B0F0BCBB46B246C7
:1013C000A946A046F0BD72006244033A89184A78E3
:1013D000904600224A7091465A7001003200200067
:1013E000FFF726FF43468246002B07D05B002168AB
:1013F0004344033BCB185A78002A16D14246514643
:101400002000FFF715FF2168019BCA19002BC6D1E8
:101410000028CFD043001B18033BCB180021997044
:10142000C8E7019B002BBAD1C4E7500080180338ED
:10143000091848788346484648705870414620004D
:10144000FFF7F6FE594680462000FFF743FF41466E
:1014500002002000FFF7ECFE8046CFE7F0B55746CC
:101460004546DE464E46E0B583B00191457B04001B
:101470006B0000685B19DF1EC15DC21900294ED0E8
:101480004B005B18033BC3185E78B446002E18D19E
:10149000019E002E40D0E67B002E04D073009B19E5
:1014A000C318033B5D70E573002931D10023280088
:1014B0005370617303B0F0BCBB46B246A946A04668
:1014C000F0BD72006244033A8018427890460022D0
:1014D000427091465A7020003200FFF7A9FE434641
:1014E0008246002B07D05B0021684344033BCB18A6
:1014F0005A78002A17D1424651462000FFF798FE3D
:10150000019B01002068C219002BC4D10029CDD055
:101510004B005B18033BC31800209870C6E7019B83
:10152000002BB8D1C2E7500080180338091848785A
:10153000834648464870587041462000FFF778FEC1
:10154000594680462000FFF7C5FE414602002000B4
:10155000FFF76EFE8046CEE770B5040000292CD060
:10156000437B8B422ED0056848004018033828186A
:101570008278002A21D053009B18033BEA5CEE18C6
:101580008A4202D11BE0002A08D053009B18033B7B
:10159000EB185A788A42F6D142785A700023012219
:1015A000837043702000FFF7DDFE617B02002000A6
:1015B000FFF73EFE6073012000E0002070BD43781D
:1015C0003370EBE701221900FFF7CCFE60730120B6
:1015D000F4E7C0462C4B2D4A70B51A602C4A2D4BAF
:1015E0002D491A6014008B689C43FBD12B4D2C4E67
:1015F000B54208D2013E761BB60808CD98472300B5
:101600000134B342F9D100F07DF8264A214B1A602B
:10161000214A9368DB43DB01DD09002BF9D140222D
:10162000214B224C224E9A675A671A67DA66B442F7
:1016300008D223682000002B20D00834FFF7EAFDF1
:10164000B442F6D31B4E1C4CC022A168300002F0FD
:1016500091FDA660FFF720F900F030FBFFF7CAFB11
:10166000164C174EB44208D2013E361BB60808CCC1
:1016700098472B0001359E42F9D170BD0834FFF721
:10168000BBFDB442D5D3DDE700E00040BFCDFBFE9B
:10169000FE7F3C0000F0004000C00040340200200B
:1016A00044020020FFFFFF0100F001402C02002057
:1016B000340200200000002000ED00E04402002081
:1016C0004802002000BEFDE70FB400B5084883B013
:1016D00002F0B8FE049B002B07D005A91800019169
:1016E00001F038FE034802F0ADFE00BEFDE7C04643
:1016F000F84C0010AC4B001010B50148FFF7E4FFA8
:10170000084D001030B50C2083B000F03DFBFFF712
:10171000BBF800280ED0944B944A1A605A609A6025
:10172000DA601A615A619A61DA611A62904A5A6201
:1017300003B030BD8F4CA06700F02EFB01228E4B12
:101740001A60636C012BFCD103228C4B1A60894A0E
:10175000936B012BFCD102240121894A894805336E
:10176000009400F0BDFA0523874A012187480094C0
:1017700000F0B6FA864B5A68FF2A02D8802252003F
:101780005A608022784C7D4B21691201804D1A608D
:10179000002905D0606901F057FE01300138FDD104
:1017A000E0217B4B02201A681140802252012A431B
:1017B00011601968484003210140116004219A68B2
:1017C0001142FCD08022802192012A43090111603C
:1017D000802252005A606F4B23616F4B5968FF297A
:1017E00000D85A600321644A6B4B116002399A6831
:1017F0001142FCD0E0201A681040802252011A43A6
:1018000010601868484003210140022011606249BD
:101810008A681042FCD08022920113438022120178
:101820001A6080225D4B52004A6063615C4B5968CC
:10183000FF2900D85A6080225A4BE1691201584DA5
:101840001A60002905D0606901F0FEFD0130013801
:10185000FDD1E02252490B681A4080235B012B43E3
:101860001A60802380229B012B4312011A60802280
:101870003E4B52004A60E3614B4B5968FF2900D848
:101880005A608022494B216A1201474D1A60002993
:1018900005D0606901F0D8FD01300138FDD1E022AA
:1018A00041490B681A4080235B012B431A60802357
:1018B00080229B012B4312011A60802380225B004F
:1018C0004B602A4BD2022362394B5968914200D2B5
:1018D0005A608022374B616A1201354D1A60002927
:1018E00005D0606901F0B0FD01300138FDD1E02282
:1018F0002F490B681A4080235B012B431A60802319
:1019000080229B012B4312011A608023DB024B6073
:10191000174B6362284B5A68FF2A02D88022520074
:101920005A608022254BA1691201234D1A600029BB
:1019300005D0606901F088FD01300138FDD1E02259
:101940001D490B681A4080235B012B431A608023DA
:1019500080229B012B4312011A6080235B004B60A5
:101960000E4BA361E4E6C04674050020006CDC0267
:101970001BB70000008000403CB0004030B0004089
:10198000002F68590080024000389C1C00C00240B3
:1019900030800040001BB7003C8000404059730776
:1019A0005480004054B000406080004060B000406F
:1019B0006C8000406CB000404880004048B000405F
:1019C000014B8000C05870477405002001238340FC
:1019D000002904D0034A1360034A13607047034A86
:1019E0001360FBE780E200E000E100E080E100E05E
:1019F000024B10309B688000C058704700ED00E03B
:101A000070B50D00EFF3108672B60F4A1368002B05
:101A1000FCD0BFF35F8F0D4B10309B6884001B59C7
:101A20000B4A934203D09D4201D0FFF765FE074B5E
:101A30009B681D51BFF35F8FBFF35F8F0022024B86
:101A40001A6086F3108870BD240100D000ED00E01C
:101A5000CD010010F0B5DE4657464E464546E0B58E
:101A60000C0083B0EFF3108A72B65A4A1368002B49
:101A7000FCD0BFF35F8F1022914681444A46564BFB
:101A800096009B689D59554B98469D4205D0A542AE
:101A900016D0534FEB1B2F2B14D94F4B9B689D51E6
:101AA000BFF35F8FBFF35F8F00224A4B1A608AF348
:101AB000108803B0F0BCBB46B246A946A046F0BDB4
:101AC0001D00EAE7012383409B465A46454B1B68AD
:101AD0001A4000925A46444B1A60BFF35F8FFEF7DC
:101AE000C2FB0190002803D0814501D0FFF704FE1E
:101AF00001232A009A4313003C49DB1B5B415943F5
:101B0000090D93689C4208D15AE043001B189B00C2
:101B1000FB189868A04211D01A0006201056002821
:101B2000F3DA009B002B05D05A46314B1A602D4B3F
:101B30001A60B2E75A462C4B1A60AEE706201856D8
:101B4000002821DB4200111889007C188846A16812
:101B50009960E179D97106216156997100291FDBDD
:101B6000A488F91A6405241544440919E0240905D8
:101B7000490D24022143998012181E4B9200BF1870
:101B80001A781870BA71CCE7019800280BD1FF3091
:101B9000907119489080174A107811709871C0E7B9
:101BA000BD210902E7E7154A1549D21A083A500241
:101BB000400D01439980134952080A43DA80B0E787
:101BC0000620105613000028BCDA019A002AEAD138
:101BD0004546E0E7240100D000ED00E0CD01001013
:101BE000A401002000E100E080E100E0AAAA0000DA
:101BF00080E200E02906002000BDFFFFDE0100209A
:101C000000F0FFFF00F8FFFFF8B5012504000543D1
:101C1000FEF729FBEFF3108C72B6214A1368002BF4
:101C2000FCD0BFF35F8F1F4E2100B7681E4A1F4BC9
:101C3000891A49414B431B0D59B28300F858A842F9
:101C40001CD00623D3568B421CD01223D3568B4272
:101C500022D01E23D3568B4220D02A23D3560320D2
:101C60008B4210D0124B1A781970A271BFF35F8F9C
:101C700000220B4B1A608CF31088F8BDB2680D4837
:101C8000D050EFE7002043001B189B00D218FF2321
:101C90009371094B9380E5E70120F4E70220F2E716
:101CA000240100D000ED00E0A4010020AAAA000059
:101CB00029060020CD01001000BDFFFF054B064A9C
:101CC0001360064A136053609360D36013615361DD
:101CD000936170478080808000E400E004E400E0CD
:101CE000F0B5C646040000B50C2090461F000E005B
:101CF00001F0AAFB4101091A8D01691AC9000918EE
:101D00008901404601F0A0FB069B3F041A032368AB
:101D10001743002B22DB184B184DE21853425A414F
:101D200080235B019C461203154B62441A60154BDD
:101D30001A601100AB689943FBD1C022231D9201A8
:101D40001A4321232660A06013602368002BFCDA6D
:101D50000823E760136080BCB846F0BD3F232268CB
:101D60001340B342D7D1A3681B051B0D8342D2D1C8
:101D7000E368002FCFD1EEE70040FDBF00C0004078
:101D800000E0004000F000408023024A9B00034333
:101D9000D362704700800540AA23064A1B011360E6
:101DA0002F230549D360054B19605368002BFCDADB
:101DB0007047C0460040024000B0FA000060024098
:101DC0007047C046F8B557464E464546DE46E0B534
:101DD00099460A9B07009A460D9B88469346150034
:101DE0000B9E9B0710D10C9B9E420DD29D1B140095
:101DF0000E005D4422004B46013431002020B847DC
:101E0000A542F7D1B0460B9E002E27D04446751947
:101E10005346AA1B013E985D21004B46B847002E51
:101E2000F6D123002C0098460D9B9B070FD55B46EF
:101E3000E51A0C9BAB420AD94646984622004B460F
:101E4000310020200135B8470134A845F6D82000DC
:101E5000F0BCBB46B246A946A046F8BD2C00E3E75D
:101E6000F0B54F464646D646C0B584B098460EAB50
:101E70001B78129F994694460D9C109B119EBA07A1
:101E800025D4002E4BD19C4200D3BFE001223A4022
:101E900092461F2C00D9B8E00C9A551E302201E062
:101EA000202C03D001342A55A342F9D85246002AE7
:101EB0000DD0A6420BD9202C44D00C9A551E3022AE
:101EC00001E0202C3ED001342A55B442F9D1FA0663
:101ED0004DD57A053FD4002C39D10F9B102B00D162
:101EE00079E00F9B022B00D18AE030230C9A012469
:101EF00013704B46002B3FD02D230C9A1355013401
:101F00000C9B624600930397434602960194FFF7A9
:101F100059FF04B0E0BCBA46B146A846F0BD012264
:101F200015003D40AA463A422FD04A46002A02D127
:101F30000C323A4200D0013E9C42BAD21F2CABD99F
:101F4000202E27D92024FA06DAD57A0503D4A34215
:101F50002DD0A6422BD00F9B102B32D0022B20D09D
:101F6000202CCDD030220C9B1B191A700134202C50
:101F7000C6D04B46002BBFD17B070DD43B07BFD546
:101F800020230C9A13550134BAE79C429FD21F2C90
:101F900000D881E720249AE72B230C9A13550134AB
:101FA000AEE7202CACD00C9B1B1901343AE0631E29
:101FB000012C92D00F9A102A2AD0022A2FD01C006E
:101FC000D0E7BB060ED4202C9AD00C9B1A190134F2
:101FD00078231370C4E7BB060DD478230C9A012430
:101FE0001370BFE7202C00D18AE758220C9B1B19E5
:101FF0001A700134B4E758230C9A01241370B1E726
:102000000C9A603301241370ACE7202400265EE7AD
:10201000023CBA06E9D40C9A12191C00D8E70C9AB3
:102020009246534462221A709AE7C04610B50028BF
:1020300000D110BD02F0B6F9FBE7C0460B0010B5A9
:10204000002802D049681B68984710BDF0B5DE46ED
:1020500057464E464546E0B59BB09B46249B894675
:102060009846259B0B900C924046424619009A4692
:1020700001F0BBFC002800D0D8E0012240465146C8
:10208000774B524201F0ACFC002800D0CEE0012298
:1020900040465146734B524201F08CFC002800D060
:1020A000C4E0002200234046514601F083FC002892
:1020B00000D0B9E1424653460A9209938023289AF8
:1020C000DB001A400E92289A1A4201D10623269369
:1020D0000A9A099B1600134300D0C7E0289B0025ED
:1020E00000261B0500D49BE100230D93269A0D9B2F
:1020F0009A4200DC9FE1D01A431E26938023289A3F
:10210000DB001A430023002728920D93279B00240D
:10211000BB4200D9DC1B0223289A1A400E92289A4F
:10212000134203D07B427B415B421C400D9B002B42
:1021300007D00A9809992A00330001F0DAFB0A90C7
:102140000991002200234046514601F033FC00284B
:1021500005D0802000068446099961440991289A97
:10216000414B0B9D13400493269B0A9A0293099BB3
:1021700003940092019349465B4628000C9A00F0B4
:102180008BF90400002F62D0289B220098061F23A1
:10219000C0179843631C984649465B466530A8477C
:1021A0000D9B0025DA179C18DB0F9A465440013F1F
:1021B00001E0202D13D00AAA94461F232000634477
:1021C0000A2101355E1901F03FF9303131702000EC
:1021D0000A2101F039F926000400092EE9D8052367
:1021E0000693002304930A330393534605970B9FEA
:1021F000029312AB009342465B4649463800019574
:10220000FFF72EFE0E9B0400002B20D00C9BC51A5E
:10221000279BAB421BD91E0022005B46494620206B
:102220000135B8470134AE42F6D810E0289B42464B
:102230000493279B49460393269B0B98029353468E
:10224000009201935B460C9A00F026F904002000EE
:102250001BB0F0BCBB46B246A946A046F0BDC04686
:10226000FFFFEF7FFFFFEFFFFFF7FFFF734B099FBC
:102270009C467800400D604401F0CAFB704A714BE7
:1022800001F055FB704A714B01F02AFB3B03704A89
:102290001B0B1A4304000D00300011006D4B00228F
:1022A00001F015FB6C4A6D4B01F041FB02000B0085
:1022B0002000290001F014FB01F0C2FB0D9001F099
:1022C000A7FB674A674B04000D0001F030FB0022BA
:1022D000654B01F005FB01F0B3FB644A0600644B5B
:1022E0002000290001F023FB040030000D000F96B0
:1022F00001F08EFB5F4A604B01F019FB02000B00FE
:102300002000290001F0E3FA02000B0006000F0094
:1023100001F00DFB320004000D003B0030003900DD
:1023200001F0DEFA002210901191544B2000290098
:1023300001F0DFFA0022524B01F0D2FA02000B004A
:102340002000290001F0D5FA00224E4B01F0C8FA16
:1023500002000B002000290001F0CBFA0D008021C3
:10236000040032003B000020C90501F0B0FA020071
:102370000B002000290001F0B3FA02000B001098B6
:10238000119901F0B6FA0022314B01F0A9FA3E4B47
:102390000F9C9C4664440022230501F0C8FA050006
:1023A0000E0002000B000A98099901F003FB0028B7
:1023B0000AD00D9B2800013B31000D930022304BC9
:1023C00001F097FA05000E00C6270D992B00633126
:1023D0008F42BF4128997F420437090500D495E612
:1023E000334300D182E6099C284A2100284B0A98F1
:1023F00001F0EEFA002808D000222100254B0A98AF
:1024000001F0D8FA002800D070E6269B002B00D1FE
:102410007CE60E9B5A1E9341269AD31A269375E6A4
:10242000002304270D9371E643460A9380231B067D
:102430005344099342E6002326935FE601FCFFFF25
:10244000FB799F501344D33FB3C8608B288AC63FA3
:102450000000F03F0000F83F61436F63A787D23F61
:1024600071A379094F930A400000E03F1655B5BBB0
:10247000B16B0240EF39FAFE422EE63F00002C40DD
:102480000000244000001840FF0300002D431CEB17
:10249000E2361A3F80842E41F0B54E46DE4657465E
:1024A0004546E0B597B09946209E219F229B8346E2
:1024B000984607910C923B0032003000390001F041
:1024C00094FA002800D0A9E1012230003900CA4B5B
:1024D000524201F06FFA002800D0E1E00122300002
:1024E0003900C64B524201F07BFA002800D0B7E019
:1024F000002230003900C24B01F072FA002800D0EF
:1025000099E0002230003900BE4B01F053FA002858
:1025100000D090E0002200233000390001F04AFA98
:10252000002800D0B1E000230D93249B5B0501D46B
:102530000623984608AB9C461722002430234146C8
:10254000624404E0013413550139202C01D00929DB
:10255000F8D888463000390001F072FA4346DA00B4
:10256000A94B05009B181A685B680892099301F053
:102570004FFA02000B003000390001F0A8F9089A68
:10258000099B01F0D4F90A900B9101F07DFA824683
:1025900001F03AFA02000B000A980B9901F097F942
:1025A00000229A4B0A900B9101F01AFA002800D1F0
:1025B000C0E001239C46E244504601F025FA0200A7
:1025C0000B000898099901F0FBF9002802D00023BC
:1025D0009A4601354346002B6AD008AB17269C4625
:1025E00008956644554614E001235B4243440A21A2
:1025F00028009A4600F028FF01343031371939702D
:1026000028000A2100F020FF092D00D8D0E0D04694
:102610000500202CE8D10EAB98460323249A1340E2
:10262000012B00D196E02023249A01930392239A50
:10263000434602921EE0249B58460493239B009637
:102640000197039343460C9A029307994B46FFF771
:10265000FDFC17B0F0BCBB46B246A946A046F0BD93
:10266000249B5B070ED40322694B249901920391AA
:1026700023990291009358464B460C9A0799FFF70D
:10268000A1FBE6E70422634BEFE73B0032000020AA
:10269000002101F01CF9012306000F000D9344E70F
:1026A000249B0393239B0293042301935A4BE1E75A
:1026B000280001F0ADF902000B003000390001F0F4
:1026C00006F9524B002206000F0001F073F90EAB21
:1026D000984600280AD10022300039004B4B01F007
:1026E0007FF9002802D1EB0700D50135202C94D0CA
:1026F00008AA94461723280063440A2101341E19AE
:1027000000F07AFE3031280031700A2100F074FEAA
:10271000051EEBD10323249A1340012B1BD0202C40
:1027200000D180E70D9B002B35D02D224146631C44
:102730000A5579E700220A980B99344B01F03AF9CF
:10274000002800D046E75346002B51D101239C4678
:10275000E2443FE72024239B002BE0D00D9B002B7D
:1027600003D1249A0C33134202D0239B013B2393C1
:10277000239BA342D3D908AB9C4617223023624443
:10278000202C00D14FE72399013413558C42C6D039
:10279000202CF8D147E7249B5B0724D4249A2300FC
:1027A000120700D440E72022414601330A553BE797
:1027B0005746089D202C00D12DE7220030214046AD
:1027C000002F09D00132B154202A00D123E7D3438E
:1027D0001B191B18002BF5D10EAB98462E23414632
:1027E000541C8B5482E72B224146631C0A551BE77D
:1027F000DB0700D4EEE6A9E7FFFFEFFFFFFFEF7F67
:1028000065CDCD4165CDCDC1104F00100000E03F3A
:10281000144D0010184D0010244D0010249B0393FC
:10282000239B029303230193004B23E7204D0010C9
:10283000F0B5DE464E4657464546E0B59FB01C0013
:10284000289B91460993C94AC94B8B4608901A6048
:10285000002900D118E2002320789A46002800D1F0
:102860001AE226001D005C460AE02A006F1C4B4657
:10287000089D2100A8473D0001363078002870D01F
:102880002528F2D110239B46083B9A46043B9846E4
:10289000023B00219C46721C107816000300203B6E
:1028A000DBB2102B03D8B34F9B00FB589F460300AD
:1028B000303B092B32D900230A932A2868D0002301
:1028C00098462E283ED00300683BDBB2122B1CD862
:1028D000A94A9B00D3589F46012301321943DBE7E5
:1028E000634601321943D7E7434601321943D3E720
:1028F0005B4601321943CFE7534601321943CBE718
:1029000080235B007078194301360300253BDBB25E
:10291000532BAAD8994A9B00D3589F4600270300FF
:10292000B800C01901364000C018337830381A009A
:10293000303A0700092AF3D90A9018000023984674
:102940002E28C0D180237078DB0019430300303B70
:10295000721C092B00D8A1E12A2800D1B2E116008F
:10296000B1E7A346AA462C00D14503D801235B4218
:102970004B449A464B46524659460020089DA8476C
:1029800020001FB0F0BCBB46B246A946A046F0BD31
:10299000099B40CB0A96002E03DB50780993561C06
:1029A0008DE72838014370420A9009935078561CED
:1029B00085E7782800D1DFE1582800D14CE26F2864
:1029C00000D14FE3622801D100F030FC10230A004F
:1029D0009A430B92692801D000F0A9FC0A230C93BA
:1029E0004B0500D5D0E10B9A802311009B001940C4
:1029F0008B461A4200D0A1E2802311005B001940EF
:102A00008A461A4200D0B6E313005B0600D5EDE219
:102A1000130009991B0601D400F076FC08C91BB20B
:102A2000D8171A18424092B209919346DA0F1292BF
:102A3000002B09D1802310220B99DB000B4091431E
:102A40000B91002B00D0E4E20B9A6123920600D593
:102A500041230EA91F228C46DBB262440A3B5F462B
:102A60001395A34655460C9CB2460D9316000AE0FA
:102A70003033DBB201357355A74200D2EDE2202D91
:102A800000D1EAE207002100380000F0DDFCCBB203
:102A90000929EDD90D9A94466344DBB2EAE7802315
:102AA0009B007078194301362FE77078682800D1B1
:102AB000CDE180230136194327E770786C2800D1D7
:102AC000BFE180235B00194301361EE7462800D191
:102AD0009BE10722099B0491073393430A9A19004B
:102AE0000392424602920CC9089800920193099100
:102AF0002A004B462100FFF7CFFC01360500BCE65B
:102B00002A006F1C4B46089D21002520A84701364E
:102B10003D00B2E68B0700D4ADE1099B2A009A463E
:102B20006B1C9846534601CB21009A46089F4B46A2
:102B3000C0B2B8470A9B9C466544012B00D886E288
:102B4000089B4746B04626004C4699463A0023006B
:102B5000013731002020C847AF42F7D1A146534684
:102B6000340046460993013687E6C04631280010F6
:102B7000F40500202C4D0010704D0010BC4D0010CD
:102B8000099B04CB9B4643460992002B00D1C6E02B
:102B900013789C46002B00D1BDE34346013B099AC4
:102BA0000133D0180A9F130001E0834203D05A7802
:102BB0000133002AF9D1099A0A979B1A0B938023B3
:102BC0000A00DB001A400C92194204D00B9B4345CB
:102BD00001D943460B9302231A000A400D920B427F
:102BE00000D187E16046002800D168E10C9B002BF2
:102BF00000D10DE1A844C246099B57465B1B98468D
:102C0000089BB2462A0026004C46994609E023005C
:102C10003100551CC8474346585D002800D126E1C5
:102C20002A009742F3D1A1463D00340056460D9B41
:102C3000002B00D043E15B46013609931DE6099B5A
:102C40001A0008CA9246002B48D0212211438B4615
:102C50000EA884461F216144099500220F27A4462F
:102C60000D0002E0202A0CD00B003C001C4020008C
:102C70003730092C00D807380132A85419090F2B16
:102C8000F0D86446099D32E0DC4B2078089300239D
:102C90009A46002800D0E4E5002465E64346060095
:102CA0000A9F9800C018013240008019167803006E
:102CB00030003038303B0928F3D9300098461600F0
:102CC0000A9700E6099B023604CB9046D243404661
:102CD000D2171040804609933078F4E5102208009E
:102CE000904311321043834600224905B0D55B461C
:102CF000069308230593434604931023039300236C
:102D0000029316AB019200932A004B4621000898CB
:102D1000FFF7A6F85346050001360993ADE5137891
:102D20009C46002B00D1F7E202235B4237E72023C9
:102D300002009A43472A04D180231B01194302232E
:102D40009843452801D1202319430722099B049168
:102D5000073393430A9A19000392424602920CC920
:102D600008980092019309912A004B462100FFF731
:102D70006DF90136050080E510230C930C230A0041
:102D80009A430B924B0503D501230B9A9A430B925E
:102D9000692800D127E6642800D124E60B9A802315
:102DA00011009B0019408B461A4200D066E1802337
:102DB00011005B0019408A461A4200D039E2130024
:102DC0005B0600D53CE113001B0600D4A6E2099B7C
:102DD00004CB1204120C934609935B46002B00D0DF
:102DE0009AE10B9A1033110099430B91520500D4CC
:102DF00092E100239A460B9B06930A9B0593434658
:102E000004930C9B039300230CE12023194360E6F9
:102E1000099B0A9A5B1B98464B4691461F00B24697
:102E20002600089C2A003B003100A047434601359C
:102E3000585D0028F6D14A463400B94656460A92F3
:102E4000F5E6C0239B00B078194302365DE5C02348
:102E5000B0781943023658E50C230A009A4314331C
:102E60001A43103B0B920C934B058DD496E7A14669
:102E700034005646DBE60A9A012A00D853E26B1E5C
:102E80009F18089BB04626004C4699462A0023000E
:102E9000013531002020C847BD42F7D1A14634009A
:102EA0004646099B3A0001CB210098467D1C4B46C3
:102EB000089FC0B2B847434601360993DDE40B9B37
:102EC0000A9AA8469A4200D8B5E694466544ED1A97
:102ED000089B4746B04626004C4699463A002300D8
:102EE000013731002020C847AF42F7D1A146340056
:102EF0004646A0E60B9A0A99531C914200D814E268
:102F00004B199B1A1F00089BB24626004C46994657
:102F10002A002300013531002020C847BD42F7D1E7
:102F20000A9BA14601330B93099B34001B7856463C
:102F30009C466046002800D058E67CE60722099BA4
:102F400007339343013294469C4462465F6809927A
:102F50001A68FB17109311931098119903005340AE
:102F60000E930B007B400F9394460E9A0F9B121A00
:102F70008B410E920F93FB0F6246129300233A434C
:102F80009B463DD00B9A6123920600D54123002237
:102F9000DBB20EA90A3B8C4692460D9343461F3284
:102FA00062441395159655460E9E0F9FA246904675
:102FB0000C9C14930CE03032D2B2434601355A5582
:102FC000BB4500D18AE1202D00D18AE106000F0027
:102FD000220000233000390000F078FAD2B2092A2A
:102FE000E9D90D9B9C466244D2B2E6E7FF230999DA
:102FF00004C913401A00099117E5C046C11D00100D
:103000000B9A1033110099430B915205BAD5002346
:103010009A460B9B06930A9B0593434604930C9B8D
:103020000393129B02935346019316AB2A0000931D
:1030300021004B460898FEF713FF013605001CE4FB
:10304000FF22099B02CB11408B460993C5E65346EC
:10305000454609930136FFF710FC56465C46AA46E2
:10306000139DD6E708230C930B910B99642800D08D
:1030700084E60B9B5B0500D586E6B4E40722099B3A
:1030800007339343013294469C44624609921A687E
:103090005B6810009B4613005A46134307D10B9AF6
:1030A0001033110099430B91520500D5A1E60B9AFC
:1030B0006123920600D541230022DBB20EA90A3B10
:1030C0008C4692460D9343461F3262445F461295EA
:1030D000A34655460400B24690460C9E13930DE05D
:1030E0003032D2B2434601355A550023BB4200D19B
:1030F00000E1202D00D100E104000F003200002388
:103100002000390000F0E2F9D2B2092AE8D90D9B7B
:103110009C466244D2B2E5E70B9A6123920600D541
:103120004123DBB20EA90A3B1F228C460D932300DC
:1031300062445C461295170055469B46B2460C9E6B
:1031400008E03033DBB201357B55B4420ED3202D7D
:103150000CD004003100200000F076F9CBB2092930
:10316000EFD90D9A94466344DBB2ECE756465C46D1
:10317000AA46129D3FE6099B1A0008CAD917139266
:103180005A184A409246DA0F1292002B08D1802337
:1031900010220B99DB000B4091430B91002B2BD19C
:1031A0000B9A6123920600D541230EAA1F2794464D
:1031B000DBB20A3B0D9567445D460993A34654462E
:1031C000B2460C9E08E03033DBB201357B55B44289
:1031D0000ED3202D0CD004003100200000F034F973
:1031E000CBB20929EFD9099A94466344DBB2ECE7E4
:1031F00056465C46AB460D9D0B9B2A0006930A9BE8
:1032000021000593434604930C9B08980393129B5B
:10321000013602935B46019316AB00934B46FEF7D3
:103220001FFE139B05000993FFF727FB02230C9356
:103230001AE7099B04CB92461293002A08D18023F7
:1032400010220B99DB000B4091430B91002B2BD1EB
:103250000B9A6123920600D541230EAA1F2794469C
:10326000DBB20A3B0D9567445D460993A34654467D
:10327000B2460C9E08E03033DBB201357B55B442D8
:103280000ED3202D0CD004003100200000F0DCF81B
:10329000CBB20929EFD9099A94466344DBB2ECE733
:1032A00056465C46AB460D9D0B9B2A0006930A9B37
:1032B00021000593434604930C9B08980393002335
:1032C00002935B46019316AB00934B46FEF7C8FD95
:1032D000129B050009930136FFF7CFFAB44200D8DC
:1032E00071E6149B54460E960F97AA469846159E73
:1032F000139D8EE6A64200D8FBE6139B56469846E1
:10330000AA465C46129D76E508C9D8171A184240AD
:103310000991FFF78AFB00230B9350E4099B04CB30
:103320009346099359E52F00BBE50B9301E6063B55
:103330000C939AE600B585B00391012102900093A9
:10334000034813004A4202A9FFF772FA05B000BD14
:103350003D20001010B5094A0300146884B0002C09
:1033600008D0012200910648524203A9A04701203B
:1033700004B010BD01F066F80020F9E7F405002064
:103380002D20001001480421014B1847F0010020B6
:10339000B5330010142310B50100188804331B88BE
:1033A000984710BD162310B50100188802331B88FA
:1033B000984710BDF8B54746CE4680B50F1E19D0C8
:1033C00014239946043304000025012698464B46F1
:1033D0001888434621681B88984701C4431E9841BA
:1033E000013540420640AF42F1D13000C0BCB94681
:1033F000B046F8BD0126F8E7124A936F9B0815D234
:103400009066D166002905D0FFE7FFE7FFE7516F1F
:10341000106F704704B580210906C217514000287B
:1034200000D0C84301F0B8FA002104BDF0B5146E15
:10343000556E576F166FFFF7E3FF146655665767B3
:103440001667F0BD000000D0114A936F9B0813D29D
:1034500010665166002905D0FFE7FFE7FFE7516FCF
:10346000106F704704B5002801D00020C04301F060
:1034700093FA002104BDC046F0B5146E556E576F27
:10348000166FFFF7E5FF1466556657671667F0BDC0
:10349000000000D094464E4A926F9208624601D2D4
:1034A00030E0C046F0B54A4EB56F6D08FCD3346EBF
:1034B000756E776F366F00F025F89446444A1466AF
:1034C0005566576716676246F0BDC0469446404A47
:1034D000926F9208624601D258E0C046F0B53C4E69
:1034E000B56F6D08FCD3346E756E776F366F00F074
:1034F0004DF89446364A1466556657671667624615
:10350000F0BDC046002B24DB11D000293EDA00B507
:10351000C943404200D1013100F038F8C94340426C
:1035200000D10131DB43524200D1013300BD002AFA
:10353000EBD1002801D1002905D00020C90FC9070F
:1035400001D1C043410800B501F01EFA002200235A
:1035500000BD00B500290ADBDB43524200D1013334
:1035600000F014F8C943404200D1013100BDC94305
:10357000404200D10131DB43524200D1013300F01F
:1035800005F8DB43524200D1013300BD002923D1AD
:10359000002B18D1002A0CD0BC460D4F38667A6635
:1035A00000210023FFE7FFE7FFE77A6F386F6746E8
:1035B0007047002801D00748010000B501F0E4F988
:1035C0000022002300BD02000B00002000217047F4
:1035D000000000D0FFFFFFFF002B00D0BFE0130C66
:1035E00028D1002AE7D080B4114F39667A66FFE708
:1035F000FFE730B4040C7B6F396F1B0423433B6639
:103600007A66FFE7FFE7FFE7C04684B27B6F3D6F56
:103610001B0423433B667A66FFE7FFE7C0460023AF
:103620002C042D0C7A6F386F00196941B0BC7047BB
:10363000000000D0F0B594460025140E01D112020E
:103640000835140F01D112010435940F01D19200F5
:103650000235D40F01D152000135D40B0134254F6E
:103660007C66254C3C660E0C93B2FFE7FFE7FFE754
:103670003C6F6643360C7703BE467343DF0B5B0437
:10368000C01AB941130C7343DB18C91ACE0866433C
:10369000360CB64493B273431F0F1B01C01AB941D5
:1036A000130C73431F0B1B05C01AB941860D8F0203
:1036B0003E436643360C092D24DB520A7243801ABE
:1036C0007703460A6643360C16235B1BDE40DF4059
:1036D000BF1964466643821B7046043506330100F9
:1036E000D940A840C01900D30131A24206D200231C
:1036F000F0BD0000000000D0FFFFFFFF121B0130F3
:10370000F3D3F1E709277F1BFE406446A2B2724360
:10371000801A00D20139220C7243130C1204821A4F
:1037200099410B007046043513370100F940A84059
:10373000801900D30131002B02D1A2420AD2F0BD80
:10374000013000D30131121BFAD2013BF8D1A24261
:1037500000D2F0BD013000D30131121BF7E7F0B504
:103760001C0C00D080E00CB400251C0A04D11B0204
:10377000160E3343120208351C0B04D11B01160F21
:103780003343120104359C0B04D19B00960F334345
:1037900092000235DC0B02D192185B4101351C000E
:1037A000971864410134464F7C66464C3C660E0CCB
:1037B000FFE7FFE7FFE7C0463C6F6643360C770341
:1037C000BE4697B27743C01B00D20139C01B00D25E
:1037D00001399FB27743C91BC91B170C77437E047D
:1037E000FF0B801BB941CE086643360C0C2D33DB32
:1037F000B644120B1F053A431B0B97B27743C01B0D
:1038000000D201399FB27743C91B170C77433E049E
:103810003F0C801BB941860D8F023E43664329272A
:103820007F1BFE400C3D7746AF40BF1930BCA2B2B3
:10383000ABB272437343801A9941220C7243130C4A
:103840001204801A994102000B000137001BA941A4
:10385000F9D2781E0021F0BD0C277F1BFE40774671
:103860007F0BAF40FF19E0E700245D1C07D0144F29
:103870007D663966FFE7FFE7FFE7FFE73C6F95B23C
:103880009EB265436643401BB141150C1E0C654357
:10389000664336042F0C3E432D04401BB141994230
:1038A00004D202000B0020000021F0BD01D19042A3
:1038B000F7D3801A994101349942F2D3F6E7000018
:1038C000000000D0FFFFFFFF48404140484018B4CF
:1038D0001B4B5B68FC46019308BD04DF673B00108F
:1038E00018B4174B1B68FC46019308BD00DF713B01
:1038F00000109446134A926F920809D2624618B497
:103900000F4BDB68FC46019308BD0CDF293E00101D
:103910000C4AF0B5146E556E576F166F6246FFF77E
:10392000EEFF084A1466556657671667F0BD18B46F
:10393000034B9B68FC46019308BD08DFCD3C00109B
:1039400048030020000000D0FFB5504042405040E6
:1039500059404B40594000E0FFB5154F4C00640DF5
:1039600003D0BC4204D10C0314D80020090D090572
:103970005C00640D03D0BC4204D11C030AD80022B1
:103980001B0D1B0501264B4009D44B4003D58B4230
:1039900000D18242FFBD9942FCD19042FFBD0B4352
:1039A000DB1803431343F5D0C9434918FFBD00009A
:1039B000FF07000000B5FFF7CFFF804100BDC04604
:1039C00000B5FFF7C9FF01D9002000BD012000BDEF
:1039D00000B5FFF7B9FF01D9002000BD012000BDEF
:1039E00000B5FFF7B1FF804100BD012040054A004E
:1039F000121804D85A00121801D80020704701206C
:103A000070470020704700000021002805D1704752
:103A1000C1174840401AFAD0C90713B5064B1B68B6
:103A200098470CBC441CA2401005120B0349091B0B
:103A300009051943114310BD080600201F040000AA
:103A400010B54C00620D8023D218DB00D21A5B0542
:103A50007E2A10DD9E3A13DACC1709034908194370
:103A60005242D140640001341532202A05DAD04098
:103A70000843604310BD002010BD0846604310BDE0
:103A8000C80FC018013810BD18B4044B5B6AFC465F
:103A9000019308BD24DFD93F001000004803002037
:103AA000132370B51D78012D15D010DD1C48FFF7CC
:103AB00079FC1C4C01008022200000F05BFB022DF1
:103AC00006D01948FFF766FC184B186070BD154CFE
:103AD000174BA364F5E7164B124C23606360A36099
:103AE000E36023616361A361E36123626362A362B4
:103AF000E36223636363A363E36323646364A36494
:103B0000E36423656365A365E36523666366A36673
:103B1000E36623676367A367E367A364D1E7C046EF
:103B200053440000480300204C33000008060020E6
:103B3000353B001007B5604601880A0A0230DF2ACB
:103B4000FAD1C9B2820804D3028840880004104325
:103B500000E00068014A5050039007BD4803002070
:103B60000FB403BC0CBCF0B50124E407634000E0D3
:103B7000F0B50C0DCF0F661E3605891B640503D307
:103B8000C943404200D30131640D03D0661CF60ADC
:103B900007D0E41B00207F00791C89078912803C34
:103BA00024031D0DDF0F6E1E36059B1B6D0503D311
:103BB000DB43524200D301336D0D03D06E1CF60A75
:103BC00007D0ED1B00227F007B1C9B079B12803DD2
:103BD0002D032F1B661B58D4A446202E46DA20370F
:103BE0001400BC401D00BD40F24033412A43801800
:103BF0005941CB0F05D0C943C04300226442504114
:103C0000514162464D0D28D10D0D07D100281FD01E
:103C1000241940414941013A0D0DF9D0640006D301
:103C2000013000D30131002C01D140084000013A9D
:103C30000BD4941CE40A04D112051144DB07194487
:103C4000F0BDD907204B194300E0D9070020F0BD93
:103C50000029DDD1002CDBD1F0BD0132C6074008C0
:103C6000CD0728434908002EE1D0D9E73C2E29DAB8
:103C7000203E40371400BC4000D00124F2401443E1
:103C80001A00BB401C43D317ACE7AC46202F08DA20
:103C900020360400B4400D00B540F84039412843B7
:103CA000A5E73C2F0CDA203F40360400B44000D09A
:103CB0000124F84004430800B1400C43C117EAE76F
:103CC00010001900002494E70000F07FF0B50C0DFF
:103CD000661E3605891BE60A6405640D02D0651C64
:103CE000ED0A04D0002001210905803C2403A446EC
:103CF0001C0D671E3F05DB1BE70A6405640D02D03F
:103D0000651CED0A04D0002201231B05803C24031E
:103D10007740644497B484B296B27443070C7E43F0
:103D2000150C6F4380B26843361802D3012000049B
:103D30003F183004350C00197D41844688B29AB290
:103D400050430C0C62431F0C7C438EB27E4392198D
:103D500002D301263604A4191604170C361867413D
:103D600001BC81B29AB25143040C62431B0C5C4308
:103D700080B25843121802D3012000042418100402
:103D8000130C401863412D185E410020474106BCCA
:103D900088B293B258430C0C6343120C544389B25B
:103DA00051435B1802D301210904641819041A0C49
:103DB000091862416D1856410020474118BCF902AC
:103DC000720D1143F0026A0D1043ED020A0D03D18A
:103DD0006D1940414941013B124E9B1B7600B34295
:103DE0000ED26D0007D3013000267141664635437F
:103DF00001D1400840001B05C918E4072144F0BD6B
:103E00000BDA013306D1013004D101314F0D01D05D
:103E10004908F2E7E1070020F0BD01363105002036
:103E2000EBE70000FF030000F0B51C0D671E3F0527
:103E3000DB1BE70A6405640D02D0661CF60A04D099
:103E4000002201231B05803C2403D0252D060026DB
:103E5000F6432E661E096E66CE0FF619B44649006B
:103E60004F0D02D07E1CF60A03D000200021403FF7
:103E70003F033E1BB600B444013F7F05C91B490800
:103E80002E6F013676089C02950D25437543ED1380
:103E90007543AD1301356D10F603761B0CB4CC02DF
:103EA000450D2C43A2B2B3B25A43270C7B43350CC9
:103EB0006F43A4B26C431B1902D3012424043F199D
:103EC0001C041D0CA4187D4124196D41009A91B267
:103ED000ACB26143170C7C432B0C5F4392B25A4344
:103EE000A41802D301221204BF182204230C521872
:103EF0007B41019C6C431B19520ED9010A434401BA
:103F0000A01A81B2B2B2514303145A43360C734320
:103F100087B27743D617D21900277E4136049B1902
:103F20001704160C7F185E417316ED18F301002676
:103F300080337541A90F06D16400690AE8055B0A60
:103F4000184309D22FE00422944480337541A90A12
:103F5000A8059B0A184326D3404149412404009AEE
:103F6000019B0D005543641B4343E41A95B286B28E
:103F70007543170C7E43030C5F4392B25A43B61845
:103F800002D301221204BF183204330C52197B41B0
:103F900052429C41002C02D4002201305141400881
:103FA000CA071043490802B06246D7079210084B6F
:103FB000D218084B9A4203D212058918C919F0BDCC
:103FC0000020002A01DC3900F0BD01331905F5E7B6
:103FD000FD030000FE070000002200B5203200F0C3
:103FE00004F8080000BD000000220B150AD410B52B
:103FF000944600F031F81414013400DA0021CB1794
:10400000144C20470020002170476244343A0CD4FD
:104010000C2A07DA04009140904052422032D440EA
:10402000214310BDD843D94310BD203207D40C46DC
:104030009440524220321141D040204310BD08002C
:10404000C917203203D452422032104110BD18004B
:10405000190010BD0B4000100A0DCC0F531E1B059C
:10406000C91A520503D3C943404200D30131520D4E
:1040700003D0531CDB0A07D0121B00206400611C14
:1040800089078912803A1203014BD21A7047000047
:10409000FF03000051434343C9188C46110C83B2FF
:1040A0004B4310B4040C614392B280B2504362435C
:1040B0001C041B0C001910BC59411304120CC0182D
:1040C0005141614470470000132310B512481C7819
:1040D000FFF768F90100012C0AD003DD80220F48A8
:1040E00000F048F80E48FFF755F90E4B186010BD68
:1040F0000A4C5422200000F03DF80B4B6365A36589
:10410000E36523666366A366E36623676367A36765
:10411000E3672362E361E5E75346000048040020BB
:104120004C330000080600202D41001007B5604602
:1041300001880A0A0230DF2AFAD1C9B2820804D300
:10414000028840880004104300E00068014A505093
:10415000039007BD4804002001480421014B184783
:1041600000020020B5330010014B1B681847000007
:1041700000020020014B5B6818470000000200208D
:10418000030010B5080011001B68984710BDC04619
:10419000F0B546464F46D646C0B5437C80460E0035
:1041A0001700002B46D0002A3FDD4B1E9946244BBA
:1041B0000125002400209A460DE04B461B5D0D3B77
:1041C0005A425341325DDBB20A2A0BD02B00013434
:1041D00001359F421ADD002CEFD14346325D1B7C36
:1041E0000A2AF3D1002BF1D1A04204DA4346211A66
:1041F0001B6830189847434650461B680221984771
:10420000013428002B0001359F42E4DC874204DDA5
:104210004346391A1B6830189847F619013E33781F
:104220000D3B5A42534142461374E0BCBA46B14674
:10423000A846F0BD0368110030009847F5E7C04676
:10424000C04F0010F0B5C6460C000968060000B566
:10425000802906D04B1C23606418267180BCB846A8
:10426000F0BD0F4B1D68002D16D0231D98460D4F35
:1042700002E0ED68002D0FD02B68002BF9D03B68D1
:10428000002B01D0AB42F4D1280041462268FFF751
:104290007FFFED68002DEFD101230021DBE7C04651
:1042A000DC050020F0050020F0B557464E46454697
:1042B000DE461C00D023E0B51B061F68344B83B0DC
:1042C00006000D00180001A991469A4600F06CFB0B
:1042D0008046002808D1019B7FB29F4204D05046FF
:1042E00000F06AFB012398466B1C03D1300000F0FC
:1042F00011FB0500002C27D1264F274B1C68002CF2
:1043000018D04B46002B21D1244B994602E0E4689B
:10431000002C0FD02368002BF9D04B461B68002BD4
:1043200001D0A342F3D120002A003100B847E4684D
:10433000002CEFD14346002B25D103B0F0BCBB4687
:10434000B246A946A046F0BD154FD6E7134B994695
:104350000A239B4602E0E468002CEBD02368002B84
:10436000F9D04B461B68002B01D0A342F3D12A00A1
:1043700031002000B8475A466B4620001A7101A947
:104380000122B847E7E7504600F0F6FAD5E7C04605
:104390002C02002091410010DC050020F0050020D7
:1043A00081410010F0B5CE46474680B583B06B46DC
:1043B000DE1CD02330701B061C681F4B804601A9F1
:1043C0001800994600F0F0FA071E20D01B4B1C681D
:1043D000002C28D01A4D02E0E468002C0FD023688E
:1043E000002BF9D02B68002B01D0A342F4D1200080
:1043F00001223100FFF7CCFEE468002CEFD1002F42
:1044000011D1404603B0C0BCB946B046F0BD019BD7
:1044100064B29C420BD0484600F0CEFA074B01270D
:104420001C68002CD6D1484600F0A6FAE9E7034BF9
:104430001C68002CCED1E4E72C020020DC05002013
:10444000F005002070B5040000F064FA00230100BC
:10445000050001222000FFF727FF084B1C68002CF5
:1044600006D06368002B05D09847E468002CF8D18B
:10447000280070BDE468002CF3D1F9E7DC050020CA
:104480000D4A1368002B13D0834202D109E09842F1
:1044900008D01A00DB68002BF9D1002900D0D060C9
:1044A00070471A000029FBD1DB68D360C160F7E7D1
:1044B0000029F5D01060F3E7DC050020F0B5474691
:1044C000CE46D02380B51B061D682E4BA5B0070035
:1044D0000C00180003A9984600F066FA061E07D1E2
:1044E000039B6DB29D4203D0404600F065FA013651
:1044F0008422002103A8FFF737FE23003A00224858
:1045000003A9FEF717FF039B0700002B14D11F4BD5
:104510001C68002C06D06368002B0BD09847E46819
:10452000002CF8D1002E27D1380025B0C0BCB946E8
:10453000B046F0BDE468ECE7144B1D689946002DC9
:104540001ED0134C02E0ED68002D11D02B68002B1B
:10455000F9D02368002B01D0AB42F4D1039B280093
:104560001A0004A90193FFF713FEED68002DEDD1A9
:104570004B4603951C68CCE7404600F0FDF9D3E7B5
:104580000395CFE72C02002045420010DC050020F7
:10459000F00500200FB400B583B004A901C9019152
:1045A000FFF78CFF03B008BC04B0184710B500F04B
:1045B00043F810BDF0B50D1E15DD0E4B0D271A6822
:1045C0000D4B4519D31859424B410C495B005E5EB7
:1045D00020210478A64207D093691942FCD101300A
:1045E0001460A842F5D1F0BD93691942FCD117605F
:1045F000F2E7C046240600200080FCBF2006002011
:1046000030B504000D1E12DD00201021094B013CC5
:104610001A689369194208D1013093691942FCD193
:10462000136823548542F4D130BD0028FCD1032007
:104630004042F9E724060020E12110B50B4B0C485D
:104640001B780C4B49021B780B4B1860FCF73EF9AA
:1046500002210020FCF7C6F802210120FCF7C2F875
:1046600001210648FFF70CFF10BDC0462450001082
:1046700000400340285000102406002010020020B3
:10468000F8B5DE4657464E4645468346E0B505201A
:104690000C00FDF795F90600600821008019FEF76F
:1046A000D3FE430098468044070005214046FEF7AC
:1046B000CBFE3B1A9A46204B8146700080199C42E3
:1046C00034D81E49FEF7C0FE451C5B461C6800231B
:1046D000E36622680433534006221A4080235B01BC
:1046E00023431A605346E3614B462362434601204D
:1046F0004F2B03D950214046FEF7A6FEA0232200EF
:10470000E0508023E06F7C3245402D045B01134371
:104710002D0C1D60012339003000E366FEF794FE86
:10472000F0BCBB46B246A946A046F8BD0449FEF718
:104730008BFE451CC9E7C0463F420F00809698009B
:1047400040787D01104A70B5821A53425A410723BE
:1047500052429A430D4B10321A600D4B0D4C1A60A9
:104760001500A3689D432B1EFAD166240268FF340E
:104770000571D5661460633C8833FF3CD56395634F
:10478000D450FFF77DFF70BD2402002000E0004000
:1047900000F0004000C00040F0B557464E46454688
:1047A000DE4690460022E0B583B01E000CAB1B78BD
:1047B00084469A460368DA6601325960DA66002E4A
:1047C0004FDD51464A40520201928022914632000A
:1047D0008025771E0020464610219046AD0000241B
:1047E000002804D162461479621E9441A40200227A
:1047F0009346B8421AD0325C22435C4622431A6187
:104800005A6B1142FCD04A469C58002C11D1B84238
:1048100022D001308045E2D1634652461A7103B07E
:10482000F0BCBB46B246A946A046F0BD019A9346ED
:10483000E1E75A6D012293465A6B2A42FCD01A6E68
:104840005A46002AE5D0002C03D0E30701D4230701
:10485000E2D402204042DFE75246002AD9D1D346B3
:10486000EAE70020D8E7C046F0B54546DE465746A1
:104870004E4693460022E0B51D0009AB1B780400AC
:1048800098460368DA6601325960DA66002D3EDD2B
:1048900041464A40520294468022002052009146EE
:1048A0006F1E803A596F1029FCD0002826D00026B0
:1048B0008021B2464900B84212D0196102E0996FD6
:1048C000002913D19958596D0029F8D0022040428F
:1048D00043462371F0BCBB46B246A946A046F0BD94
:1048E0006646514631434E463143E6E759461B6919
:1048F0000B5401308542EBD02368D3E7217900299E
:10490000D5D08026A021F600B246C900D3E700200A
:10491000DEE7C04610B583070AD00300032102E09A
:1049200001330B4205D01A78002AF9D1181A10BDAC
:10493000030019680C4A0D4C8A188A4322420FD191
:104940005968094A04338A188A43224208D15968AF
:10495000054A04338A188A432242F1D000E0013329
:104960001A78002AFBD1E1E7FFFEFEFE80808080FE
:10497000F8B5C0460000000001B40248844601BCFE
:10498000604700BF4D01002001B40248844601BCCD
:10499000604700BF7501002001B40248844601BC95
:1049A000604700BF7501002001B40248844601BC85
:1049B000604700BF0901002001B40248844601BCE1
:0849C000604700BFC1000020A8
:1049C8006E6F74206465746563746564000000002C
:1049D800496E697469616C697A696E6720415432FD
:1049E8003443582E202E202E000000000A656570E2
:1049F800726F6D5F312069732025730A0000000013
:104A08000A577269746520627974652064656D6FF0
:104A18003A20546869732077696C6C2077726974DE
:104A2800652076616C75652030206174206164644E
:104A38007265737320307830302C203120617420F7
:104A480061646472657373203078303120616E64FC
:104A580020736F206F6E0A0057726974696E672041
:104A68006174206164647265737320307825303214
:104A7800583A2025640A0000446576696365207702
:104A880072697465206572726F7221000A526561DD
:104A98006420627974652064656D6F3A204F627492
:104AA80061696E2076616C7565732066726F6D2022
:104AB8006164647265737365732030783030207474
:104AC8006F20307830392C2076616C7565732073CF
:104AD800686F756C642062652066726F6D20302087
:104AE800746F203920726573706563746976656CBC
:104AF800790A000052656164696E672061742061FB
:104B0800646472657373203078253032583A2025F2
:104B1800640A0000446576696365207265616420F3
:104B28006572726F722100000A52656164206279B1
:104B380074652061742063757272656E7420616497
:104B480064726573732064656D6F3A004F766572A1
:104B58007772697465206164647265737320307854
:104B680030342077697468207468652073616D65D6
:104B78002076616C756520746F2073657420746885
:104B8800652063757272656E742061646472657302
:104B9800732077686963682077696C6C2062652088
:104BA800307830350A0000000A4E6F772072656150
:104BB800642063757272656E7420616464726573D3
:104BC8007320776869636820697320307830352CE2
:104BD8002076616C75652073686F756C64206265FA
:104BE8002035000052656164696E67206174206336
:104BF800757272656E7420616464726573733A20AD
:104C080025640A000A506167652077726974652017
:104C180064656D6F3A2057726974652031323820A7
:104C28006279746573206174206F6E6365206672A3
:104C38006F6D203078303020746F20307837660000
:104C480057726974696E67203132382062797465E9
:104C5800732066726F6D203078303020746F20308A
:104C6800783746004163746976650000496E616370
:104C78007469766500000000446576696365207292
:104C88006567697374657265642E20537461747501
:104C9800733A2025732C20436869703A20415432B6
:104CA800344325642C20416464726573733A203060
:104CB80078253032582C2053697A653A2025640AC1
:104CC80000000000080052501A520A00486172643D
:104CD8007761726520616C61726D20256420616C5A
:104CE800726561647920636C61696D6564000000B8
:104CF8000A2A2A2A2050414E4943202A2A2A0A00F1
:104D0800486172642061737365727400666E69002D
:104D1800666E692B000000006E616E00666E692D7C
:104D280000000000F8280010AE280010AE2800107F
:104D3800F0280010AE280010AE280010AE28001091
:104D4800AE280010AE280010AE280010AE280010C3
:104D5800E8280010AE280010E0280010AE28001047
:104D6800AE280010D8280010AA2A00100A2900101E
:104D78009E2A00100A290010BA2A00100A290010D9
:104D88000A2900100A2900100A2900100A2900100F
:104D98000A2900100A290010002900100A29001009
:104DA8000A2900100A2900100A2900100A290010EF
:104DB80000290010002B00106A2800106A28001033
:104DC8006A2800106A2800106A2800106A28001053
:104DD8006A2800106A2800106A2800106A28001043
:104DE8006A2800106A2800106A2800106A28001033
:104DF8006A2800106A2800106A2800106A28001023
:104E08006A2800106A2800106A2800106A28001012
:104E18006A2800106A2800106A2800106A28001002
:104E28006A2800106A2800106A2800106A280010F2
:104E38006A2800102E2D0010CC2A00102E2D0010EC
:104E48006A2800106A2800106A2800106A280010D2
:104E58006A2800106A2800106A2800106A280010C2
:104E68006A2800106A2800106A2800106A280010B2
:104E78006A2800106A2800106A2800106A280010A2
:104E8800B22900106A2800106A2800106A28001049
:104E98006A2800106A2800106A2800106A28001082
:104EA8006A2800106A280010B2290010142B00107C
:104EB800B22900102E2D0010CC2A00102E2D001023
:104EC8006A280010B22900106A2800106A28001009
:104ED8006A2800106A2800106A280010B2290010F9
:104EE8003E2C00106A2800106A280010802B001041
:104EF8006A280010B22900106A2800106A280010D9
:104F0800B229001000000000000000000000F03F7F
:104F1800000000000000244000000000000059408C
:104F28000000000000408F40000000000088C340DF
:104F380000000000006AF8400000000080842E4154
:104F480000000000D01263410000000084D79741A0
:104F58000000000065CDCD4152656C656173650048
:104F6800626F6F74325F773235713038300000000D
:104F7800312E332E300000007069636F000000008E
:104F880061743234637800004F637420313020320A
:104F98003032320006005250BBFF3CB6804F001042
:104FA80006005250E182887F684F00100600525078
:104FB800D3F07542604F00100D0A0000554152545D
:104FC80020737464696E00005541525420737464F0
:104FD8006F7574005541525420737464696E202FA4
:104FE800207374646F7574000600525053B4F4A1B2
:0C4FF800DC4F0010080052509200000036
:10500400CC4C0010B4020010A80200109C02001046
:105014009C4F001090020010A84F0010B44F0010D5
:08502400F04F0010FC4F0010DA
:10502C00D02330B500251B0600245D5706E003682D
:10503C00BFF35F8F1C6081F3108820BF0268EFF311
:10504C00108172B61368002BFCD0BFF35F8F03790D
:10505C007F2BECD905710368BFF35F8F00221A60B8
:10506C0081F3108830BDC04603000068EFF3108C4C
:10507C0072B60268002AFCD0BFF35F8F04229A56E6
:10508C00002A0BDB00290FD000200A601B68BFF33D
:10509C005F8F00221A608CF310887047D0221206A2
:1050AC00126801201A71F1E70020EFE70268EFF3B4
:1050BC00108172B61368002BFCD0BFF35F8FFF23F7
:1050CC0003710368BFF35F8F00221A6081F31088AD
:1050DC0040BF70477047C04610000000940100208C
:1050EC0000000000480200209C0500200000000089
:1050FC0000000000AC0500200000000000000000D3
:10510C001000000000000000000001000000000082
:10511C000000000000000200000000000000000081
:10512C000000030000000000000000000000FF0071
:10513C000000000000B5486801318E4600477046FB
:10514C0009380149884700BD091C00100000000007
:10515C00503300004C330000543300005233000035
:10516C004D5300004D430000533400004334000005
:10517C00B5450010000000000146001000000000C2
:10518C00000100000040044000000000000000008E
:10519C00000000005941001085330010A13A0010A6
:0851AC00C9400010ED020010E3
:04000005100001E9FD
:00000001FF
